{
  "contractName": "ExamRegistration",
  "abi": [
    {
      "inputs": [
        {
          "internalType": "address",
          "name": "",
          "type": "address"
        }
      ],
      "name": "exams",
      "outputs": [
        {
          "internalType": "string",
          "name": "name",
          "type": "string"
        },
        {
          "internalType": "string",
          "name": "usn",
          "type": "string"
        },
        {
          "internalType": "string",
          "name": "examType",
          "type": "string"
        },
        {
          "internalType": "uint256",
          "name": "examFees",
          "type": "uint256"
        }
      ],
      "stateMutability": "view",
      "type": "function",
      "constant": true
    },
    {
      "inputs": [
        {
          "internalType": "string",
          "name": "_name",
          "type": "string"
        },
        {
          "internalType": "string",
          "name": "_usn",
          "type": "string"
        },
        {
          "internalType": "string",
          "name": "_examType",
          "type": "string"
        },
        {
          "internalType": "uint256",
          "name": "_examFees",
          "type": "uint256"
        }
      ],
      "name": "registerExam",
      "outputs": [],
      "stateMutability": "nonpayable",
      "type": "function"
    },
    {
      "inputs": [
        {
          "internalType": "address",
          "name": "_user",
          "type": "address"
        }
      ],
      "name": "getExamDetails",
      "outputs": [
        {
          "internalType": "string",
          "name": "",
          "type": "string"
        },
        {
          "internalType": "string",
          "name": "",
          "type": "string"
        },
        {
          "internalType": "string",
          "name": "",
          "type": "string"
        },
        {
          "internalType": "uint256",
          "name": "",
          "type": "uint256"
        }
      ],
      "stateMutability": "view",
      "type": "function",
      "constant": true
    }
  ],
  "bytecode": "0x608060405234801561001057600080fd5b50610a3b806100206000396000f3fe608060405234801561001057600080fd5b50600436106100415760003560e01c8063777e585414610046578063880b2ee414610079578063d55f7863146100ac575b600080fd5b610060600480360381019061005b91906106c5565b6100c8565b60405161007094939291906107e1565b60405180910390f35b610093600480360381019061008e91906106c5565b610290565b6040516100a394939291906107e1565b60405180910390f35b6100c660048036038101906100c191906106ee565b6104c7565b005b60006020528060005260406000206000915090508060000180546100eb90610936565b80601f016020809104026020016040519081016040528092919081815260200182805461011790610936565b80156101645780601f1061013957610100808354040283529160200191610164565b820191906000526020600020905b81548152906001019060200180831161014757829003601f168201915b50505050509080600101805461017990610936565b80601f01602080910402602001604051908101604052809291908181526020018280546101a590610936565b80156101f25780601f106101c7576101008083540402835291602001916101f2565b820191906000526020600020905b8154815290600101906020018083116101d557829003601f168201915b50505050509080600201805461020790610936565b80601f016020809104026020016040519081016040528092919081815260200182805461023390610936565b80156102805780601f1061025557610100808354040283529160200191610280565b820191906000526020600020905b81548152906001019060200180831161026357829003601f168201915b5050505050908060030154905084565b60608060606000806000808773ffffffffffffffffffffffffffffffffffffffff1673ffffffffffffffffffffffffffffffffffffffff1681526020019081526020016000206040518060800160405290816000820180546102f190610936565b80601f016020809104026020016040519081016040528092919081815260200182805461031d90610936565b801561036a5780601f1061033f5761010080835404028352916020019161036a565b820191906000526020600020905b81548152906001019060200180831161034d57829003601f168201915b5050505050815260200160018201805461038390610936565b80601f01602080910402602001604051908101604052809291908181526020018280546103af90610936565b80156103fc5780601f106103d1576101008083540402835291602001916103fc565b820191906000526020600020905b8154815290600101906020018083116103df57829003601f168201915b5050505050815260200160028201805461041590610936565b80601f016020809104026020016040519081016040528092919081815260200182805461044190610936565b801561048e5780601f106104635761010080835404028352916020019161048e565b820191906000526020600020905b81548152906001019060200180831161047157829003601f168201915b50505050508152602001600382015481525050905080600001518160200151826040015183606001519450945094509450509193509193565b6040518060800160405280858152602001848152602001838152602001828152506000803373ffffffffffffffffffffffffffffffffffffffff1673ffffffffffffffffffffffffffffffffffffffff1681526020019081526020016000206000820151816000019080519060200190610542929190610590565b50602082015181600101908051906020019061055f929190610590565b50604082015181600201908051906020019061057c929190610590565b506060820151816003015590505050505050565b82805461059c90610936565b90600052602060002090601f0160209004810192826105be5760008555610605565b82601f106105d757805160ff1916838001178555610605565b82800160010185558215610605579182015b828111156106045782518255916020019190600101906105e9565b5b5090506106129190610616565b5090565b5b8082111561062f576000816000905550600101610617565b5090565b60006106466106418461086c565b61083b565b90508281526020810184848401111561065e57600080fd5b6106698482856108f4565b509392505050565b600081359050610680816109d7565b92915050565b600082601f83011261069757600080fd5b81356106a7848260208601610633565b91505092915050565b6000813590506106bf816109ee565b92915050565b6000602082840312156106d757600080fd5b60006106e584828501610671565b91505092915050565b6000806000806080858703121561070457600080fd5b600085013567ffffffffffffffff81111561071e57600080fd5b61072a87828801610686565b945050602085013567ffffffffffffffff81111561074757600080fd5b61075387828801610686565b935050604085013567ffffffffffffffff81111561077057600080fd5b61077c87828801610686565b925050606061078d878288016106b0565b91505092959194509250565b60006107a48261089c565b6107ae81856108a7565b93506107be818560208601610903565b6107c7816109c6565b840191505092915050565b6107db816108ea565b82525050565b600060808201905081810360008301526107fb8187610799565b9050818103602083015261080f8186610799565b905081810360408301526108238185610799565b905061083260608301846107d2565b95945050505050565b6000604051905081810181811067ffffffffffffffff8211171561086257610861610997565b5b8060405250919050565b600067ffffffffffffffff82111561088757610886610997565b5b601f19601f8301169050602081019050919050565b600081519050919050565b600082825260208201905092915050565b60006108c3826108ca565b9050919050565b600073ffffffffffffffffffffffffffffffffffffffff82169050919050565b6000819050919050565b82818337600083830152505050565b60005b83811015610921578082015181840152602081019050610906565b83811115610930576000848401525b50505050565b6000600282049050600182168061094e57607f821691505b6020821081141561096257610961610968565b5b50919050565b7f4e487b7100000000000000000000000000000000000000000000000000000000600052602260045260246000fd5b7f4e487b7100000000000000000000000000000000000000000000000000000000600052604160045260246000fd5b6000601f19601f8301169050919050565b6109e0816108b8565b81146109eb57600080fd5b50565b6109f7816108ea565b8114610a0257600080fd5b5056fea2646970667358221220a11e165ee30da6d6f1480535b4547b2cfd2f40758f7a523ecbfbcd9cbb63a71164736f6c63430008000033",
  "immutableReferences": {},
  "source": "// SPDX-License-Identifier: MIT\npragma solidity ^0.8.0;\n\ncontract ExamRegistration {\n    struct Exam {\n        string name;\n        string usn;\n        string examType;\n        uint256 examFees;\n    }\n\n    mapping(address => Exam) public exams;\n\n    function registerExam(\n        string memory _name,\n        string memory _usn,\n        string memory _examType,\n        uint256 _examFees\n    ) public {\n        exams[msg.sender] = Exam(_name, _usn, _examType, _examFees);\n    }\n\n    function getExamDetails(\n        address _user\n    )\n        public\n        view\n        returns (string memory, string memory, string memory, uint256)\n    {\n        Exam memory exam = exams[_user];\n        return (exam.name, exam.usn, exam.examType, exam.examFees);\n    }\n}\n",
  "sourcePath": "/Users/gowriviswanath/Desktop/bc_project/contracts/ExamRegistration.sol",
  "compiler": {
    "name": "solc",
    "version": "0.8.0+commit.c7dfd78e.Emscripten.clang"
  },
  "schemaVersion": "3.4.16",
  "updatedAt": "2024-05-16T10:11:34.236Z",
  "networkType": "ethereum",
  "devdoc": {
    "kind": "dev",
    "methods": {},
    "version": 1
  },
  "userdoc": {
    "kind": "user",
    "methods": {},
    "version": 1
  }
}