{
  "contractName": "ExamRegistration",
  "abi": [
    {
      "inputs": [
        {
          "internalType": "address",
          "name": "",
          "type": "address"
        }
      ],
      "name": "students",
      "outputs": [
        {
          "internalType": "string",
          "name": "name",
          "type": "string"
        },
        {
          "internalType": "string",
          "name": "usn",
          "type": "string"
        },
        {
          "internalType": "string",
          "name": "examType",
          "type": "string"
        },
        {
          "internalType": "uint256",
          "name": "marks",
          "type": "uint256"
        }
      ],
      "stateMutability": "view",
      "type": "function"
    },
    {
      "inputs": [
        {
          "internalType": "string",
          "name": "_name",
          "type": "string"
        },
        {
          "internalType": "string",
          "name": "_usn",
          "type": "string"
        },
        {
          "internalType": "string",
          "name": "_examType",
          "type": "string"
        },
        {
          "internalType": "uint256",
          "name": "_marks",
          "type": "uint256"
        }
      ],
      "name": "registerExam",
      "outputs": [],
      "stateMutability": "payable",
      "type": "function"
    },
    {
      "inputs": [
        {
          "internalType": "address",
          "name": "_user",
          "type": "address"
        }
      ],
      "name": "getExamDetails",
      "outputs": [
        {
          "internalType": "string",
          "name": "",
          "type": "string"
        },
        {
          "internalType": "string",
          "name": "",
          "type": "string"
        },
        {
          "internalType": "string",
          "name": "",
          "type": "string"
        },
        {
          "internalType": "uint256",
          "name": "",
          "type": "uint256"
        }
      ],
      "stateMutability": "view",
      "type": "function"
    }
  ],
  "bytecode": "0x608060405234801561001057600080fd5b50610aeb806100206000396000f3fe6080604052600436106100345760003560e01c8063880b2ee414610039578063a6c807a914610079578063d55f7863146100b9575b600080fd5b34801561004557600080fd5b50610060600480360381019061005b9190610715565b6100d5565b6040516100709493929190610871565b60405180910390f35b34801561008557600080fd5b506100a0600480360381019061009b9190610715565b61030c565b6040516100b09493929190610871565b60405180910390f35b6100d360048036038101906100ce919061073e565b6104d4565b005b60608060606000806000808773ffffffffffffffffffffffffffffffffffffffff1673ffffffffffffffffffffffffffffffffffffffff168152602001908152602001600020604051806080016040529081600082018054610136906109e6565b80601f0160208091040260200160405190810160405280929190818152602001828054610162906109e6565b80156101af5780601f10610184576101008083540402835291602001916101af565b820191906000526020600020905b81548152906001019060200180831161019257829003601f168201915b505050505081526020016001820180546101c8906109e6565b80601f01602080910402602001604051908101604052809291908181526020018280546101f4906109e6565b80156102415780601f1061021657610100808354040283529160200191610241565b820191906000526020600020905b81548152906001019060200180831161022457829003601f168201915b5050505050815260200160028201805461025a906109e6565b80601f0160208091040260200160405190810160405280929190818152602001828054610286906109e6565b80156102d35780601f106102a8576101008083540402835291602001916102d3565b820191906000526020600020905b8154815290600101906020018083116102b657829003601f168201915b50505050508152602001600382015481525050905080600001518160200151826040015183606001519450945094509450509193509193565b600060205280600052604060002060009150905080600001805461032f906109e6565b80601f016020809104026020016040519081016040528092919081815260200182805461035b906109e6565b80156103a85780601f1061037d576101008083540402835291602001916103a8565b820191906000526020600020905b81548152906001019060200180831161038b57829003601f168201915b5050505050908060010180546103bd906109e6565b80601f01602080910402602001604051908101604052809291908181526020018280546103e9906109e6565b80156104365780601f1061040b57610100808354040283529160200191610436565b820191906000526020600020905b81548152906001019060200180831161041957829003601f168201915b50505050509080600201805461044b906109e6565b80601f0160208091040260200160405190810160405280929190818152602001828054610477906109e6565b80156104c45780601f10610499576101008083540402835291602001916104c4565b820191906000526020600020905b8154815290600101906020018083116104a757829003601f168201915b5050505050908060030154905084565b60643414610517576040517f08c379a000000000000000000000000000000000000000000000000000000000815260040161050e906108cb565b60405180910390fd5b6040518060800160405280858152602001848152602001838152602001828152506000803373ffffffffffffffffffffffffffffffffffffffff1673ffffffffffffffffffffffffffffffffffffffff16815260200190815260200160002060008201518160000190805190602001906105929291906105e0565b5060208201518160010190805190602001906105af9291906105e0565b5060408201518160020190805190602001906105cc9291906105e0565b506060820151816003015590505050505050565b8280546105ec906109e6565b90600052602060002090601f01602090048101928261060e5760008555610655565b82601f1061062757805160ff1916838001178555610655565b82800160010185558215610655579182015b82811115610654578251825591602001919060010190610639565b5b5090506106629190610666565b5090565b5b8082111561067f576000816000905550600101610667565b5090565b60006106966106918461091c565b6108eb565b9050828152602081018484840111156106ae57600080fd5b6106b98482856109a4565b509392505050565b6000813590506106d081610a87565b92915050565b600082601f8301126106e757600080fd5b81356106f7848260208601610683565b91505092915050565b60008135905061070f81610a9e565b92915050565b60006020828403121561072757600080fd5b6000610735848285016106c1565b91505092915050565b6000806000806080858703121561075457600080fd5b600085013567ffffffffffffffff81111561076e57600080fd5b61077a878288016106d6565b945050602085013567ffffffffffffffff81111561079757600080fd5b6107a3878288016106d6565b935050604085013567ffffffffffffffff8111156107c057600080fd5b6107cc878288016106d6565b92505060606107dd87828801610700565b91505092959194509250565b60006107f48261094c565b6107fe8185610957565b935061080e8185602086016109b3565b61081781610a76565b840191505092915050565b600061082f601b83610957565b91507f526567697374726174696f6e20666565206973203130302077656900000000006000830152602082019050919050565b61086b8161099a565b82525050565b6000608082019050818103600083015261088b81876107e9565b9050818103602083015261089f81866107e9565b905081810360408301526108b381856107e9565b90506108c26060830184610862565b95945050505050565b600060208201905081810360008301526108e481610822565b9050919050565b6000604051905081810181811067ffffffffffffffff8211171561091257610911610a47565b5b8060405250919050565b600067ffffffffffffffff82111561093757610936610a47565b5b601f19601f8301169050602081019050919050565b600081519050919050565b600082825260208201905092915050565b60006109738261097a565b9050919050565b600073ffffffffffffffffffffffffffffffffffffffff82169050919050565b6000819050919050565b82818337600083830152505050565b60005b838110156109d15780820151818401526020810190506109b6565b838111156109e0576000848401525b50505050565b600060028204905060018216806109fe57607f821691505b60208210811415610a1257610a11610a18565b5b50919050565b7f4e487b7100000000000000000000000000000000000000000000000000000000600052602260045260246000fd5b7f4e487b7100000000000000000000000000000000000000000000000000000000600052604160045260246000fd5b6000601f19601f8301169050919050565b610a9081610968565b8114610a9b57600080fd5b50565b610aa78161099a565b8114610ab257600080fd5b5056fea264697066735822122003a951094fb356146d3344e8bcf1f4caa8c553d918521c7b4d2915c8bcf74efe64736f6c63430008000033",
  "immutableReferences": {},
  "source": "// SPDX-License-Identifier: MIT\npragma solidity ^0.8.0;\n\ncontract ExamRegistration {\n    struct Student {\n        string name;\n        string usn;\n        string examType;\n        uint marks;\n    }\n\n    mapping(address => Student) public students;\n\n    function registerExam(string memory _name, string memory _usn, string memory _examType, uint _marks) public payable {\n        require(msg.value == 100 wei, \"Registration fee is 100 wei\");\n        \n        students[msg.sender] = Student(_name, _usn, _examType, _marks);\n    }\n\n    function getExamDetails(address _user) public view returns (string memory, string memory, string memory, uint) {\n        Student memory student = students[_user];\n        return (student.name, student.usn, student.examType, student.marks);\n    }\n}\n",
  "sourcePath": "C:\\Users\\roshi\\Desktop\\bc_project\\contracts\\ExamRegistration.sol",
  "compiler": {
    "name": "solc",
    "version": "0.8.0+commit.c7dfd78e.Emscripten.clang"
  },
  "schemaVersion": "3.4.16",
  "updatedAt": "2024-05-30T06:20:21.699Z",
  "devdoc": {
    "kind": "dev",
    "methods": {},
    "version": 1
  },
  "userdoc": {
    "kind": "user",
    "methods": {},
    "version": 1
  }
}