{
  "contractName": "Lock",
  "abi": [
    {
      "inputs": [
        {
          "internalType": "uint256",
          "name": "_unlockTime",
          "type": "uint256"
        }
      ],
      "stateMutability": "payable",
      "type": "constructor"
    },
    {
      "anonymous": false,
      "inputs": [
        {
          "indexed": false,
          "internalType": "uint256",
          "name": "amount",
          "type": "uint256"
        },
        {
          "indexed": false,
          "internalType": "uint256",
          "name": "when",
          "type": "uint256"
        }
      ],
      "name": "Withdrawal",
      "type": "event"
    },
    {
      "inputs": [],
      "name": "owner",
      "outputs": [
        {
          "internalType": "address payable",
          "name": "",
          "type": "address"
        }
      ],
      "stateMutability": "view",
      "type": "function"
    },
    {
      "inputs": [],
      "name": "unlockTime",
      "outputs": [
        {
          "internalType": "uint256",
          "name": "",
          "type": "uint256"
        }
      ],
      "stateMutability": "view",
      "type": "function"
    },
    {
      "inputs": [],
      "name": "withdraw",
      "outputs": [],
      "stateMutability": "nonpayable",
      "type": "function"
    }
  ],
  "bytecode": "0x60806040526040516105ab3803806105ab833981810160405281019061002591906100ca565b428111610067576040517f08c379a000000000000000000000000000000000000000000000000000000000815260040161005e90610159565b60405180910390fd5b8060008190555033600160006101000a81548173ffffffffffffffffffffffffffffffffffffffff021916908373ffffffffffffffffffffffffffffffffffffffff160217905550506101ab565b6000815190506100c481610194565b92915050565b6000602082840312156100dc57600080fd5b60006100ea848285016100b5565b91505092915050565b6000610100602383610179565b91507f556e6c6f636b2074696d652073686f756c6420626520696e207468652066757460008301527f75726500000000000000000000000000000000000000000000000000000000006020830152604082019050919050565b60006020820190508181036000830152610172816100f3565b9050919050565b600082825260208201905092915050565b6000819050919050565b61019d8161018a565b81146101a857600080fd5b50565b6103f1806101ba6000396000f3fe608060405234801561001057600080fd5b50600436106100415760003560e01c8063251c1aa3146100465780633ccfd60b146100645780638da5cb5b1461006e575b600080fd5b61004e61008c565b60405161005b919061032a565b60405180910390f35b61006c610092565b005b61007661020b565b60405161008391906102cf565b60405180910390f35b60005481565b6000544210156100d7576040517f08c379a00000000000000000000000000000000000000000000000000000000081526004016100ce906102ea565b60405180910390fd5b600160009054906101000a900473ffffffffffffffffffffffffffffffffffffffff1673ffffffffffffffffffffffffffffffffffffffff163373ffffffffffffffffffffffffffffffffffffffff1614610167576040517f08c379a000000000000000000000000000000000000000000000000000000000815260040161015e9061030a565b60405180910390fd5b7fbf2ed60bd5b5965d685680c01195c9514e4382e28e3a5a2d2d5244bf59411b934742604051610198929190610345565b60405180910390a1600160009054906101000a900473ffffffffffffffffffffffffffffffffffffffff1673ffffffffffffffffffffffffffffffffffffffff166108fc479081150290604051600060405180830381858888f19350505050158015610208573d6000803e3d6000fd5b50565b600160009054906101000a900473ffffffffffffffffffffffffffffffffffffffff1681565b61023a8161037f565b82525050565b600061024d60168361036e565b91507f596f752063616e277420776974686472617720796574000000000000000000006000830152602082019050919050565b600061028d60148361036e565b91507f596f75206172656e277420746865206f776e65720000000000000000000000006000830152602082019050919050565b6102c9816103b1565b82525050565b60006020820190506102e46000830184610231565b92915050565b6000602082019050818103600083015261030381610240565b9050919050565b6000602082019050818103600083015261032381610280565b9050919050565b600060208201905061033f60008301846102c0565b92915050565b600060408201905061035a60008301856102c0565b61036760208301846102c0565b9392505050565b600082825260208201905092915050565b600061038a82610391565b9050919050565b600073ffffffffffffffffffffffffffffffffffffffff82169050919050565b600081905091905056fea2646970667358221220ede455bcd5542fb7d18445707e55bf3aeafdfa7bff9654df68e00e1c8438a2c964736f6c63430008000033",
  "immutableReferences": {},
  "source": "// SPDX-License-Identifier: MIT\npragma solidity ^0.8.0;\n\ncontract Lock {\n    uint256 public unlockTime;\n    address payable public owner;\n\n    event Withdrawal(uint256 amount, uint256 when);\n\n    constructor(uint256 _unlockTime) payable {\n        require(\n            _unlockTime > block.timestamp,\n            \"Unlock time should be in the future\"\n        );\n\n        unlockTime = _unlockTime;\n        owner = payable(msg.sender);\n    }\n\n    function withdraw() public {\n        require(block.timestamp >= unlockTime, \"You can't withdraw yet\");\n        require(msg.sender == owner, \"You aren't the owner\");\n\n        emit Withdrawal(address(this).balance, block.timestamp);\n\n        owner.transfer(address(this).balance);\n    }\n}\n",
  "sourcePath": "/Users/gowriviswanath/Desktop/bc_project/contracts/Lock.sol",
  "compiler": {
    "name": "solc",
    "version": "0.8.0+commit.c7dfd78e.Emscripten.clang"
  },
  "schemaVersion": "3.4.16",
  "updatedAt": "2024-05-16T05:43:33.882Z",
  "devdoc": {
    "kind": "dev",
    "methods": {},
    "version": 1
  },
  "userdoc": {
    "kind": "user",
    "methods": {},
    "version": 1
  }
}